{
  "_format": "hh-sol-artifact-1",
  "contractName": "VaultFactory",
  "sourceName": "contracts/VaultFactory.sol",
  "abi": [
    {
      "inputs": [
        {
          "internalType": "address",
          "name": "_protocolTreasury",
          "type": "address"
        }
      ],
      "stateMutability": "nonpayable",
      "type": "constructor"
    },
    {
      "anonymous": false,
      "inputs": [
        {
          "indexed": true,
          "internalType": "address",
          "name": "vaultAddress",
          "type": "address"
        },
        {
          "indexed": true,
          "internalType": "address",
          "name": "creator",
          "type": "address"
        },
        {
          "indexed": false,
          "internalType": "string",
          "name": "purpose",
          "type": "string"
        },
        {
          "indexed": false,
          "internalType": "uint256",
          "name": "memberCount",
          "type": "uint256"
        }
      ],
      "name": "GroupVaultCreated",
      "type": "event"
    },
    {
      "anonymous": false,
      "inputs": [
        {
          "indexed": true,
          "internalType": "address",
          "name": "vaultAddress",
          "type": "address"
        },
        {
          "indexed": true,
          "internalType": "address",
          "name": "owner",
          "type": "address"
        },
        {
          "indexed": false,
          "internalType": "string",
          "name": "purpose",
          "type": "string"
        },
        {
          "indexed": false,
          "internalType": "uint256",
          "name": "unlockTime",
          "type": "uint256"
        }
      ],
      "name": "PersonalVaultCreated",
      "type": "event"
    },
    {
      "inputs": [
        {
          "internalType": "uint256",
          "name": "",
          "type": "uint256"
        }
      ],
      "name": "allVaults",
      "outputs": [
        {
          "internalType": "address",
          "name": "",
          "type": "address"
        }
      ],
      "stateMutability": "view",
      "type": "function"
    },
    {
      "inputs": [
        {
          "internalType": "string",
          "name": "_purpose",
          "type": "string"
        },
        {
          "internalType": "uint256",
          "name": "_unlockTimestamp",
          "type": "uint256"
        },
        {
          "internalType": "uint256",
          "name": "_penaltyBps",
          "type": "uint256"
        }
      ],
      "name": "createPersonalVault",
      "outputs": [
        {
          "internalType": "address",
          "name": "",
          "type": "address"
        }
      ],
      "stateMutability": "payable",
      "type": "function"
    },
    {
      "inputs": [],
      "name": "getAllVaults",
      "outputs": [
        {
          "internalType": "address[]",
          "name": "",
          "type": "address[]"
        }
      ],
      "stateMutability": "view",
      "type": "function"
    },
    {
      "inputs": [
        {
          "internalType": "address",
          "name": "_user",
          "type": "address"
        }
      ],
      "name": "getUserVaults",
      "outputs": [
        {
          "internalType": "address[]",
          "name": "",
          "type": "address[]"
        }
      ],
      "stateMutability": "view",
      "type": "function"
    },
    {
      "inputs": [
        {
          "internalType": "address",
          "name": "",
          "type": "address"
        }
      ],
      "name": "isVault",
      "outputs": [
        {
          "internalType": "bool",
          "name": "",
          "type": "bool"
        }
      ],
      "stateMutability": "view",
      "type": "function"
    },
    {
      "inputs": [],
      "name": "protocolTreasury",
      "outputs": [
        {
          "internalType": "address",
          "name": "",
          "type": "address"
        }
      ],
      "stateMutability": "view",
      "type": "function"
    },
    {
      "inputs": [
        {
          "internalType": "address",
          "name": "",
          "type": "address"
        },
        {
          "internalType": "uint256",
          "name": "",
          "type": "uint256"
        }
      ],
      "name": "userVaults",
      "outputs": [
        {
          "internalType": "address",
          "name": "",
          "type": "address"
        }
      ],
      "stateMutability": "view",
      "type": "function"
    }
  ],
  "bytecode": "0x608060405234801561001057600080fd5b506040516127e43803806127e4833981810160405281019061003291906100dc565b80600360006101000a81548173ffffffffffffffffffffffffffffffffffffffff021916908373ffffffffffffffffffffffffffffffffffffffff16021790555050610109565b600080fd5b600073ffffffffffffffffffffffffffffffffffffffff82169050919050565b60006100a98261007e565b9050919050565b6100b98161009e565b81146100c457600080fd5b50565b6000815190506100d6816100b0565b92915050565b6000602082840312156100f2576100f1610079565b5b6000610100848285016100c7565b91505092915050565b6126cc806101186000396000f3fe6080604052600436106200007a5760003560e01c806397331bf9116200005557806397331bf914620001375780639c841fef1462000167578063d6e8c92914620001ab578063e7f3c69c14620001e1576200007a565b8063652b9b41146200007f578063803db96d14620000c35780639094a91e14620000f3575b600080fd5b3480156200008c57600080fd5b50620000ab6004803603810190620000a591906200071e565b62000225565b604051620000ba91906200076d565b60405180910390f35b348015620000d057600080fd5b50620000db62000245565b604051620000ea91906200079b565b60405180910390f35b3480156200010057600080fd5b506200011f6004803603810190620001199190620007f3565b6200026b565b6040516200012e91906200079b565b60405180910390f35b3480156200014457600080fd5b506200014f620002ab565b6040516200015e9190620008f3565b60405180910390f35b3480156200017457600080fd5b506200019360048036038101906200018d919062000917565b6200033b565b604051620001a291906200079b565b60405180910390f35b620001c96004803603810190620001c3919062000ac0565b6200038a565b604051620001d891906200079b565b60405180910390f35b348015620001ee57600080fd5b506200020d60048036038101906200020791906200071e565b620005c8565b6040516200021c9190620008f3565b60405180910390f35b60016020528060005260406000206000915054906101000a900460ff1681565b600360009054906101000a900473ffffffffffffffffffffffffffffffffffffffff1681565b600081815481106200027c57600080fd5b906000526020600020016000915054906101000a900473ffffffffffffffffffffffffffffffffffffffff1681565b606060008054806020026020016040519081016040528092919081815260200182805480156200033157602002820191906000526020600020905b8160009054906101000a900473ffffffffffffffffffffffffffffffffffffffff1673ffffffffffffffffffffffffffffffffffffffff1681526020019060010190808311620002e6575b5050505050905090565b600260205281600052604060002081815481106200035857600080fd5b906000526020600020016000915091509054906101000a900473ffffffffffffffffffffffffffffffffffffffff1681565b6000803485338686600360009054906101000a900473ffffffffffffffffffffffffffffffffffffffff16604051620003c39062000697565b620003d395949392919062000bd5565b6040518091039082f0905080158015620003f1573d6000803e3d6000fd5b50905060008190506000819080600181540180825580915050600190039060005260206000200160009091909190916101000a81548173ffffffffffffffffffffffffffffffffffffffff021916908373ffffffffffffffffffffffffffffffffffffffff160217905550600260003373ffffffffffffffffffffffffffffffffffffffff1673ffffffffffffffffffffffffffffffffffffffff168152602001908152602001600020819080600181540180825580915050600190039060005260206000200160009091909190916101000a81548173ffffffffffffffffffffffffffffffffffffffff021916908373ffffffffffffffffffffffffffffffffffffffff16021790555060018060008373ffffffffffffffffffffffffffffffffffffffff1673ffffffffffffffffffffffffffffffffffffffff16815260200190815260200160002060006101000a81548160ff0219169083151502179055503373ffffffffffffffffffffffffffffffffffffffff168173ffffffffffffffffffffffffffffffffffffffff167fc4f7fa668c5793a6dc998932be750cf209d49c6f9ca3b9390e35d685cdfc59718888604051620005b492919062000c39565b60405180910390a380925050509392505050565b6060600260008373ffffffffffffffffffffffffffffffffffffffff1673ffffffffffffffffffffffffffffffffffffffff1681526020019081526020016000208054806020026020016040519081016040528092919081815260200182805480156200068b57602002820191906000526020600020905b8160009054906101000a900473ffffffffffffffffffffffffffffffffffffffff1673ffffffffffffffffffffffffffffffffffffffff168152602001906001019080831162000640575b50505050509050919050565b611a298062000c6e83390190565b6000604051905090565b600080fd5b600080fd5b600073ffffffffffffffffffffffffffffffffffffffff82169050919050565b6000620006e682620006b9565b9050919050565b620006f881620006d9565b81146200070457600080fd5b50565b6000813590506200071881620006ed565b92915050565b600060208284031215620007375762000736620006af565b5b6000620007478482850162000707565b91505092915050565b60008115159050919050565b620007678162000750565b82525050565b60006020820190506200078460008301846200075c565b92915050565b6200079581620006d9565b82525050565b6000602082019050620007b260008301846200078a565b92915050565b6000819050919050565b620007cd81620007b8565b8114620007d957600080fd5b50565b600081359050620007ed81620007c2565b92915050565b6000602082840312156200080c576200080b620006af565b5b60006200081c84828501620007dc565b91505092915050565b600081519050919050565b600082825260208201905092915050565b6000819050602082019050919050565b6200085c81620006d9565b82525050565b600062000870838362000851565b60208301905092915050565b6000602082019050919050565b6000620008968262000825565b620008a2818562000830565b9350620008af8362000841565b8060005b83811015620008e6578151620008ca888262000862565b9750620008d7836200087c565b925050600181019050620008b3565b5085935050505092915050565b600060208201905081810360008301526200090f818462000889565b905092915050565b60008060408385031215620009315762000930620006af565b5b6000620009418582860162000707565b92505060206200095485828601620007dc565b9150509250929050565b600080fd5b600080fd5b6000601f19601f8301169050919050565b7f4e487b7100000000000000000000000000000000000000000000000000000000600052604160045260246000fd5b620009b38262000968565b810181811067ffffffffffffffff82111715620009d557620009d462000979565b5b80604052505050565b6000620009ea620006a5565b9050620009f88282620009a8565b919050565b600067ffffffffffffffff82111562000a1b5762000a1a62000979565b5b62000a268262000968565b9050602081019050919050565b82818337600083830152505050565b600062000a5962000a5384620009fd565b620009de565b90508281526020810184848401111562000a785762000a7762000963565b5b62000a8584828562000a33565b509392505050565b600082601f83011262000aa55762000aa46200095e565b5b813562000ab784826020860162000a42565b91505092915050565b60008060006060848603121562000adc5762000adb620006af565b5b600084013567ffffffffffffffff81111562000afd5762000afc620006b4565b5b62000b0b8682870162000a8d565b935050602062000b1e86828701620007dc565b925050604062000b3186828701620007dc565b9150509250925092565b600081519050919050565b600082825260208201905092915050565b60005b8381101562000b7757808201518184015260208101905062000b5a565b60008484015250505050565b600062000b908262000b3b565b62000b9c818562000b46565b935062000bae81856020860162000b57565b62000bb98162000968565b840191505092915050565b62000bcf81620007b8565b82525050565b600060a082019050818103600083015262000bf1818862000b83565b905062000c0260208301876200078a565b62000c11604083018662000bc4565b62000c20606083018562000bc4565b62000c2f60808301846200078a565b9695505050505050565b6000604082019050818103600083015262000c55818562000b83565b905062000c66602083018462000bc4565b939250505056fe608060405260405162001a2938038062001a29833981810160405281019062000029919062000558565b848480600073ffffffffffffffffffffffffffffffffffffffff168173ffffffffffffffffffffffffffffffffffffffff1603620000a15760006040517f1e4fbdf700000000000000000000000000000000000000000000000000000000815260040162000098919062000610565b60405180910390fd5b620000b2816200025d60201b60201c565b50600180819055508160029081620000cb91906200086e565b507f897cb1f7a5aced02f0fe4e37d9268d7509e5620fe53f2bfe685120bcb0c13a3082604051620000fd9190620009a7565b60405180910390a150504283116200014c576040517f08c379a0000000000000000000000000000000000000000000000000000000008152600401620001439062000a1b565b60405180910390fd5b61271082111562000194576040517f08c379a00000000000000000000000000000000000000000000000000000000081526004016200018b9062000a8d565b60405180910390fd5b826003819055508160048190555080600560006101000a81548173ffffffffffffffffffffffffffffffffffffffff021916908373ffffffffffffffffffffffffffffffffffffffff160217905550600034111562000252578373ffffffffffffffffffffffffffffffffffffffff167f73a19dd210f1a7f902193214c0ee91dd35ee5b4d920cba8d519eca65a7b488ca34426040516200023792919062000ac0565b60405180910390a26200025184346200032160201b60201c565b5b505050505062000aed565b60008060009054906101000a900473ffffffffffffffffffffffffffffffffffffffff169050816000806101000a81548173ffffffffffffffffffffffffffffffffffffffff021916908373ffffffffffffffffffffffffffffffffffffffff1602179055508173ffffffffffffffffffffffffffffffffffffffff168173ffffffffffffffffffffffffffffffffffffffff167f8be0079c531659141344cd1fd0a4f28419497f9722a3daafe3b4186f6b6457e060405160405180910390a35050565b5050565b6000604051905090565b600080fd5b600080fd5b600080fd5b600080fd5b6000601f19601f8301169050919050565b7f4e487b7100000000000000000000000000000000000000000000000000000000600052604160045260246000fd5b6200038e8262000343565b810181811067ffffffffffffffff82111715620003b057620003af62000354565b5b80604052505050565b6000620003c562000325565b9050620003d3828262000383565b919050565b600067ffffffffffffffff821115620003f657620003f562000354565b5b620004018262000343565b9050602081019050919050565b60005b838110156200042e57808201518184015260208101905062000411565b60008484015250505050565b6000620004516200044b84620003d8565b620003b9565b90508281526020810184848401111562000470576200046f6200033e565b5b6200047d8482856200040e565b509392505050565b600082601f8301126200049d576200049c62000339565b5b8151620004af8482602086016200043a565b91505092915050565b600073ffffffffffffffffffffffffffffffffffffffff82169050919050565b6000620004e582620004b8565b9050919050565b620004f781620004d8565b81146200050357600080fd5b50565b6000815190506200051781620004ec565b92915050565b6000819050919050565b62000532816200051d565b81146200053e57600080fd5b50565b600081519050620005528162000527565b92915050565b600080600080600060a086880312156200057757620005766200032f565b5b600086015167ffffffffffffffff81111562000598576200059762000334565b5b620005a68882890162000485565b9550506020620005b98882890162000506565b9450506040620005cc8882890162000541565b9350506060620005df8882890162000541565b9250506080620005f28882890162000506565b9150509295509295909350565b6200060a81620004d8565b82525050565b6000602082019050620006276000830184620005ff565b92915050565b600081519050919050565b7f4e487b7100000000000000000000000000000000000000000000000000000000600052602260045260246000fd5b600060028204905060018216806200068057607f821691505b60208210810362000696576200069562000638565b5b50919050565b60008190508160005260206000209050919050565b60006020601f8301049050919050565b600082821b905092915050565b600060088302620007007fffffffffffffffffffffffffffffffffffffffffffffffffffffffffffffffff82620006c1565b6200070c8683620006c1565b95508019841693508086168417925050509392505050565b6000819050919050565b60006200074f6200074962000743846200051d565b62000724565b6200051d565b9050919050565b6000819050919050565b6200076b836200072e565b620007836200077a8262000756565b848454620006ce565b825550505050565b600090565b6200079a6200078b565b620007a781848462000760565b505050565b5b81811015620007cf57620007c360008262000790565b600181019050620007ad565b5050565b601f8211156200081e57620007e8816200069c565b620007f384620006b1565b8101602085101562000803578190505b6200081b6200081285620006b1565b830182620007ac565b50505b505050565b600082821c905092915050565b6000620008436000198460080262000823565b1980831691505092915050565b60006200085e838362000830565b9150826002028217905092915050565b62000879826200062d565b67ffffffffffffffff81111562000895576200089462000354565b5b620008a1825462000667565b620008ae828285620007d3565b600060209050601f831160018114620008e65760008415620008d1578287015190505b620008dd858262000850565b8655506200094d565b601f198416620008f6866200069c565b60005b828110156200092057848901518255600182019150602085019450602081019050620008f9565b868310156200094057848901516200093c601f89168262000830565b8355505b6001600288020188555050505b505050505050565b600082825260208201905092915050565b600062000973826200062d565b6200097f818562000955565b9350620009918185602086016200040e565b6200099c8162000343565b840191505092915050565b60006020820190508181036000830152620009c3818462000966565b905092915050565b7f556e6c6f636b2074696d65206d75737420626520696e20667574757265000000600082015250565b600062000a03601d8362000955565b915062000a1082620009cb565b602082019050919050565b6000602082019050818103600083015262000a3681620009f4565b9050919050565b7f496e76616c696420626173697320706f696e7473000000000000000000000000600082015250565b600062000a7560148362000955565b915062000a828262000a3d565b602082019050919050565b6000602082019050818103600083015262000aa88162000a66565b9050919050565b62000aba816200051d565b82525050565b600060408201905062000ad7600083018562000aaf565b62000ae6602083018462000aaf565b9392505050565b610f2c8062000afd6000396000f3fe6080604052600436106100955760003560e01c80638da5cb5b116100595780638da5cb5b146101b4578063aa082a9d146101df578063d0e30db01461020a578063ecfad9fd14610214578063f2fde38b1461023f57610100565b806301e1d114146101055780633ccfd60b1461013057806361d027b31461014757806370740aab14610172578063715018a61461019d57610100565b366101005760003411156100fe573373ffffffffffffffffffffffffffffffffffffffff167f73a19dd210f1a7f902193214c0ee91dd35ee5b4d920cba8d519eca65a7b488ca34426040516100eb929190610947565b60405180910390a26100fd3334610268565b5b005b600080fd5b34801561011157600080fd5b5061011a61026c565b6040516101279190610970565b60405180910390f35b34801561013c57600080fd5b50610145610274565b005b34801561015357600080fd5b5061015c6104a9565b60405161016991906109cc565b60405180910390f35b34801561017e57600080fd5b506101876104cf565b6040516101949190610a77565b60405180910390f35b3480156101a957600080fd5b506101b261055d565b005b3480156101c057600080fd5b506101c9610571565b6040516101d691906109cc565b60405180910390f35b3480156101eb57600080fd5b506101f461059a565b6040516102019190610970565b60405180910390f35b6102126105a0565b005b34801561022057600080fd5b5061022961064f565b6040516102369190610970565b60405180910390f35b34801561024b57600080fd5b5061026660048036038101906102619190610aca565b610655565b005b5050565b600047905090565b61027c6106db565b610284610762565b6000479050600081116102cc576040517f08c379a00000000000000000000000000000000000000000000000000000000081526004016102c390610b43565b60405180910390fd5b6003544210610382576102df33826107a8565b3373ffffffffffffffffffffffffffffffffffffffff167f62116a798bb58cc967874bea4d771de2f9aeec6c64189ff2e5a551072f3106f98242604051610327929190610baf565b60405180910390a23373ffffffffffffffffffffffffffffffffffffffff167f779c86999fb727ca861d0288aa11ed4104347721c571e4f0da5172afb607d885826040516103759190610970565b60405180910390a261049e565b6000612710600454836103959190610c1a565b61039f9190610c8b565b9050600081836103af9190610cbc565b905060008211156103e7576103e6600560009054906101000a900473ffffffffffffffffffffffffffffffffffffffff16836107a8565b5b60008111156103fb576103fa33826107a8565b5b3373ffffffffffffffffffffffffffffffffffffffff167f62116a798bb58cc967874bea4d771de2f9aeec6c64189ff2e5a551072f3106f98242604051610443929190610d3c565b60405180910390a23373ffffffffffffffffffffffffffffffffffffffff167f1670585e36568ede58d159518ce92cad99f75ad41c7d8281df3dd4eaa0c855d08284604051610493929190610947565b60405180910390a250505b506104a7610859565b565b600560009054906101000a900473ffffffffffffffffffffffffffffffffffffffff1681565b600280546104dc90610da7565b80601f016020809104026020016040519081016040528092919081815260200182805461050890610da7565b80156105555780601f1061052a57610100808354040283529160200191610555565b820191906000526020600020905b81548152906001019060200180831161053857829003601f168201915b505050505081565b6105656106db565b61056f6000610862565b565b60008060009054906101000a900473ffffffffffffffffffffffffffffffffffffffff16905090565b60035481565b6105a8610762565b600034116105eb576040517f08c379a00000000000000000000000000000000000000000000000000000000081526004016105e290610e24565b60405180910390fd5b3373ffffffffffffffffffffffffffffffffffffffff167f73a19dd210f1a7f902193214c0ee91dd35ee5b4d920cba8d519eca65a7b488ca3442604051610633929190610947565b60405180910390a26106453334610268565b61064d610859565b565b60045481565b61065d6106db565b600073ffffffffffffffffffffffffffffffffffffffff168173ffffffffffffffffffffffffffffffffffffffff16036106cf5760006040517f1e4fbdf70000000000000000000000000000000000000000000000000000000081526004016106c691906109cc565b60405180910390fd5b6106d881610862565b50565b6106e3610926565b73ffffffffffffffffffffffffffffffffffffffff16610701610571565b73ffffffffffffffffffffffffffffffffffffffff161461076057610724610926565b6040517f118cdaa700000000000000000000000000000000000000000000000000000000815260040161075791906109cc565b60405180910390fd5b565b60026001540361079e576040517f3ee5aeb500000000000000000000000000000000000000000000000000000000815260040160405180910390fd5b6002600181905550565b60008273ffffffffffffffffffffffffffffffffffffffff16826040516107ce90610e75565b60006040518083038185875af1925050503d806000811461080b576040519150601f19603f3d011682016040523d82523d6000602084013e610810565b606091505b5050905080610854576040517f08c379a000000000000000000000000000000000000000000000000000000000815260040161084b90610ed6565b60405180910390fd5b505050565b60018081905550565b60008060009054906101000a900473ffffffffffffffffffffffffffffffffffffffff169050816000806101000a81548173ffffffffffffffffffffffffffffffffffffffff021916908373ffffffffffffffffffffffffffffffffffffffff1602179055508173ffffffffffffffffffffffffffffffffffffffff168173ffffffffffffffffffffffffffffffffffffffff167f8be0079c531659141344cd1fd0a4f28419497f9722a3daafe3b4186f6b6457e060405160405180910390a35050565b600033905090565b6000819050919050565b6109418161092e565b82525050565b600060408201905061095c6000830185610938565b6109696020830184610938565b9392505050565b60006020820190506109856000830184610938565b92915050565b600073ffffffffffffffffffffffffffffffffffffffff82169050919050565b60006109b68261098b565b9050919050565b6109c6816109ab565b82525050565b60006020820190506109e160008301846109bd565b92915050565b600081519050919050565b600082825260208201905092915050565b60005b83811015610a21578082015181840152602081019050610a06565b60008484015250505050565b6000601f19601f8301169050919050565b6000610a49826109e7565b610a5381856109f2565b9350610a63818560208601610a03565b610a6c81610a2d565b840191505092915050565b60006020820190508181036000830152610a918184610a3e565b905092915050565b600080fd5b610aa7816109ab565b8114610ab257600080fd5b50565b600081359050610ac481610a9e565b92915050565b600060208284031215610ae057610adf610a99565b5b6000610aee84828501610ab5565b91505092915050565b7f4e6f2066756e647320746f207769746864726177000000000000000000000000600082015250565b6000610b2d6014836109f2565b9150610b3882610af7565b602082019050919050565b60006020820190508181036000830152610b5c81610b20565b9050919050565b7f4d41545552495459000000000000000000000000000000000000000000000000600082015250565b6000610b996008836109f2565b9150610ba482610b63565b602082019050919050565b6000606082019050610bc46000830185610938565b610bd16020830184610938565b8181036040830152610be281610b8c565b90509392505050565b7f4e487b7100000000000000000000000000000000000000000000000000000000600052601160045260246000fd5b6000610c258261092e565b9150610c308361092e565b9250828202610c3e8161092e565b91508282048414831517610c5557610c54610beb565b5b5092915050565b7f4e487b7100000000000000000000000000000000000000000000000000000000600052601260045260246000fd5b6000610c968261092e565b9150610ca18361092e565b925082610cb157610cb0610c5c565b5b828204905092915050565b6000610cc78261092e565b9150610cd28361092e565b9250828203905081811115610cea57610ce9610beb565b5b92915050565b7f4541524c595f4558495400000000000000000000000000000000000000000000600082015250565b6000610d26600a836109f2565b9150610d3182610cf0565b602082019050919050565b6000606082019050610d516000830185610938565b610d5e6020830184610938565b8181036040830152610d6f81610d19565b90509392505050565b7f4e487b7100000000000000000000000000000000000000000000000000000000600052602260045260246000fd5b60006002820490506001821680610dbf57607f821691505b602082108103610dd257610dd1610d78565b5b50919050565b7f416d6f756e74206d757374206265203e20300000000000000000000000000000600082015250565b6000610e0e6012836109f2565b9150610e1982610dd8565b602082019050919050565b60006020820190508181036000830152610e3d81610e01565b9050919050565b600081905092915050565b50565b6000610e5f600083610e44565b9150610e6a82610e4f565b600082019050919050565b6000610e8082610e52565b9150819050919050565b7f4e6174697665207472616e73666572206661696c656400000000000000000000600082015250565b6000610ec06016836109f2565b9150610ecb82610e8a565b602082019050919050565b60006020820190508181036000830152610eef81610eb3565b905091905056fea26469706673582212205e686baf4a42ce7752b1ec88bd600d9fb5d54180a08d2cb6defec4cc8b2956de64736f6c63430008140033a2646970667358221220c77e34a06eab4f3f4e65807fc138860a3b1a11bb6943cf75d9d101616467247564736f6c63430008140033",
  "linkReferences": {},
  "deployedLinkReferences": {}
}